:100000000C9489000C94B1000C94B1000C94B100D4
:100010000C94B1000C94B1000C94B1000C94B1009C
:100020000C94B1000C94B1000C94B1000C94B1008C
:100030000C94B1000C94B1000C94B1000C94B1007C
:100040000C94671B0C94B1000C94351B0C940F1B83
:100050000C94B1000C94B1000C94B1000C94B1005C
:100060000C94B1000C94B100CDCCCC3D0AD7233C0C
:1000700017B7D13877CC2B329595E6241FB14F0AAC
:100080000000803FCDCCCC3D6F12833A95BFD63374
:100090007D1D9026B3CE010C000020410000C84217
:1000A00000401C4620BCBE4CCA1B0E5AAEC59D74F7
:1000B0007C3C3E5E2B3D3F2F5B5D3B2C2A225C004F
:1000C0000000000800020100000304070000000017
:1000D0000000000000000000250028002B000000A8
:1000E0000000240027002A0004040404040404047B
:1000F00002020202020203030303030301020408D3
:100100001020408001020408102001020408102081
:10011000B11B11241FBECFEFD8E0DEBFCDBF12E070
:10012000A0E0B1E0E0E7F8E402C005900D92A6314E
:10013000B107D9F726E0A6E1B2E001C01D92A634CE
:10014000B207E1F710E0C9E8D0E004C02197FE0152
:100150000E94E622C838D107C9F70E94181C0C94E7
:1001600036240C94000090E0FC01E450FF4F2491F1
:1001700088519F4FFC018491882399F090E0880F6B
:10018000991FFC01E252FF4FA591B491FC01EC5282
:10019000FF4F859194918FB7F894EC91E22BEC93FB
:1001A0008FBF0895CF93DF93FC0182819381909359
:1001B0002A068093290684819581A681B781809340
:1001C0002B0690932C06A0932D06B0932E068085C7
:1001D0009185A285B38580932F0690933006A093D6
:1001E0003106B0933206DF011C96CF014996C3E376
:1001F000D6E02D912993A817B907D9F7818D928D53
:10020000909341068093400687E296E0DF91CF917C
:1002100008950895AF92BF92CF92DF92EF92FF922E
:100220000F931F93CF93DF936C017B018B01040F1E
:10023000151FEB015E01AE18BF08C017D10759F0BA
:100240006991D601ED91FC910190F081E02DC601FC
:100250000995892B79F7C501DF91CF911F910F91F6
:10026000FF90EF90DF90CF90BF90AF900895FC018A
:10027000538D448D252F30E0842F90E0821B930B0B
:10028000541710F0CF96089501970895FC01918DB1
:10029000828D981761F0A28DAE0FBF2FB11D5D96B4
:1002A0008C91928D9F5F9F73928F90E008958FEF56
:1002B0009FEF0895FC01918D828D981731F0828D0A
:1002C000E80FF11D858D90E008958FEF9FEF089561
:1002D000FC01918D228D892F90E0805C9F4F821BC5
:1002E00091098F739927089581E394E00E94680132
:1002F00021E0892B09F420E0822F089580E090E02E
:10030000892B29F00E94740181110C94000008953A
:10031000FC01A48DA80FB92FB11DA35ABF4F2C917A
:10032000848D90E001968F739927848FA689B78971
:100330002C93A089B1898C91837080648C93938D68
:10034000848D981306C00288F389E02D80818F7D0B
:1003500080830895EF92FF920F931F93CF93DF93C3
:10036000EC0181E0888F9B8D8C8D98131AC0E889F1
:10037000F989808185FF15C09FB7F894EE89FF89C0
:100380006083E889F98980818370806480839FBF5E
:1003900081E090E0DF91CF911F910F91FF90EF905E
:1003A0000895F62E0B8D10E00F5F1F4F0F7311276E
:1003B000E02E8C8D8E110CC00FB607FCFACFE889A9
:1003C000F989808185FFF5CFCE010E948801F1CFA8
:1003D000EB8DEC0FFD2FF11DE35AFF4FF0829FB71D
:1003E000F8940B8FEA89FB8980818062CFCFCF930D
:1003F000DF93EC01888D8823B9F0AA89BB89E8894D
:10040000F9898C9185FD03C0808186FD0DC00FB6F2
:1004100007FCF7CF8C9185FFF2CF808185FFEDCF70
:10042000CE010E948801E9CFDF91CF91089590E03D
:10043000FC01E054FF4F2491FC01E450FF4F349144
:10044000FC01E851FF4FE491EE23C9F0222339F07B
:10045000233001F1A8F4213019F1223029F1F0E024
:10046000EE0FFF1FEC52FF4FA591B4918FB7F89498
:10047000EC91611126C030953E233C938FBF0895C7
:100480002730A9F02830C9F0243049F78091800046
:100490008F7D03C0809180008F7780938000DFCFB5
:1004A00084B58F7784BDDBCF84B58F7DFBCF809102
:1004B000B0008F778093B000D2CF8091B0008F7D55
:1004C000F9CF3E2BDACF3FB7F8948091220290917A
:1004D0002302A0912402B091250226B5A89B05C055
:1004E0002F3F19F00196A11DB11D3FBFBA2FA92FB3
:1004F000982F8827BC01CD01620F711D811D911DB0
:1005000042E0660F771F881F991F4A95D1F708951B
:100510002FB7F89460911E0270911F028091200203
:10052000909121022FBF08958FB7F8948091170200
:100530008FBF089561E0FC0184810E9417028091C1
:10054000160281111092160208958EBD00000DB49E
:1005500007FEFDCF8EB508958FEF0C94A5020F9383
:100560001F93CF93DF93EC010E9488028B010E94BE
:10057000AC028F3F69F00E948802601B710B6C1700
:100580007D07A8F380E0DF91CF911F910F9108952F
:1005900081E0F9CF8CBD9DBD0895CF93DF93EC0131
:1005A00080911602811109C081E08093160280912A
:1005B000CE049091CF040E94CA0260E08C81DF914A
:1005C000CF910C9417028F929F92AF92BF92FF929D
:1005D0000F931F93CF93DF93EC01F62E49015A013D
:1005E0008E81882389F08F8198859C012F5F3F4FF2
:1005F00038872F838230924018F40E94AC02F3CFE8
:10060000CE010E949A021E82CE010E94CD028CE28F
:1006100091E00E94AF028F2D80640E94A50208E144
:1006200010E0D501C401002E04C0B695A79597959A
:1006300087950A94D2F70E94A50208501109083F35
:100640008FEF180771F785E9FF2021F028E087E890
:10065000F2128FEF0E94A50210E00E94AC028A877E
:1006600087FF04C01F3F11F01F5FF7CFDF91CF91CD
:100670001F910F91FF90BF90AF909F908F90089522
:10068000AF92BF92CF92DF92EF92FF920F931F93A0
:10069000CF93DF93EC016901C801820F931F813072
:1006A000924050F58E81882379F088819981AA81C2
:1006B000BB8184179507A607B70731F48F8198850A
:1006C000C816D90608F042C0488359836A837B83E1
:1006D0008B85833039F089E0440F551F661F771FE3
:1006E0008A95D1F79A01AB0161E1CE010E94E30244
:1006F000882389F083E08D83CE010E949A0280E0F6
:10070000DF91CF911F910F91FF90EF90DF90CF90ED
:10071000BF90AF9008950E9488025B010E94AC02D6
:100720008A878F3F69F40E9488026A197B096D32BB
:100730007140A0F38FE08D83CE010E949A02DCCF3E
:100740008E3F89F418861F8281E08E838F81988581
:100750008C159D0550F40E94AC028F8198850196FE
:1007600098878F83F3CF8DE0E6CF6701E00EF11E0F
:100770000E94AC02F60181936F01EE15FF05C1F7EF
:100780008F819885080F191F18870F838985882303
:1007900019F001151240A0F08E81882389F08F8115
:1007A00098859C012F5F3F4F38872F83823092407E
:1007B00018F40E94AC02F3CFCE010E949A021E826E
:1007C00081E09ECFCF92DF92EF92FF920F93CF9373
:1007D000DF93EC01690182E1411551056105710565
:1007E00099F08B85833039F089E0440F551F661FDF
:1007F000771F8A95D1F79A01AB0168E1CE010E947B
:10080000E302882319F084E08D832DC08EEF0E94CF
:10081000A50276018EEFD81AF70181917F010E941F
:10082000A502EC14FD04C1F78FEF0E94A5028FEF23
:100830000E94A5020E94AC028A878F71853071F4F4
:10084000011116C0CE010E949A0281E0DF91CF9182
:100850000F91FF90EF90DF90CF90089581E18D830D
:10086000CE010E949A02CE010E949A0280E0EECF51
:1008700088E592E00E94AF02811102C085E1C4CFF9
:1008800020E030E0A9016DE0CE010E94E302882360
:1008900011F084E1B9CF0E94AC028111FACFD2CF1E
:1008A0000F934091190250911A0260911B027091AE
:1008B0001C02411551056105710599F0082F2FE2C1
:1008C00032E080912F04909130040E94E20388234B
:1008D00049F01092190210921A0210921B02109203
:1008E0001C0281E00F9108950F93CF93C82F809140
:1008F0001802811105C0C1E08C2FCF910F9108958E
:100900004091000150910101609102017091030139
:100910000C2F2FE232E080912F04909130040E943E
:10092000E203811102C0C0E0E7CFCC2321F381E0D4
:100930000E9450048823B9F310921802DDCF8F92E1
:100940009F92AF92BF92EF92FF920F931F93CF931C
:100950004B015C01C42F8091000190910101A09195
:100960000201B091030188159905AA05BB0551F153
:1009700081E00E94740481110BC080E0CF911F912F
:100980000F91FF90EF90BF90AF909F908F90089540
:100990008FE2E82E82E0F82E00E012E030E020E066
:1009A000B501A40180912F04909130040E9440036E
:1009B000882319F38092000190920101A092020114
:1009C000B0920301409118024C2B4093180281E031
:1009D000D5CF8F929F92AF92BF92CF92DF92EF923C
:1009E000FF92CF9320ED34E03093300420932F0416
:1009F000882309F46DC040E060E070E0CB010E9404
:100A00009F0481110BC080E0CF91FF90EF90DF90A9
:100A1000CF90BF90AF909F908F9008958091ED03FD
:100A20008F7789F78091F9039091FA03A091FB03E6
:100A3000B091FC0384369105A105B10520F3C09067
:100A4000F503D090F603E090F703F090F803C1149B
:100A5000D104E104F104B9F240E0C701B6010E94FB
:100A60009F04882381F280913A0290913B02811584
:100A7000924049F6A0913F02AA2329F260913D02DB
:100A800070913E026115710509F4BDCF20913C02C1
:100A9000222309F4B8CFA093EE042093E00490E061
:100AA00080E030E0E1E0F0E0C82FAF01082E02C0A6
:100AB000440F551F0A94E2F72417350769F041E007
:100AC000480F01968930910579F74093E9049BCF4F
:100AD000C12CD12C7601C0CF8093E904209145022E
:100AE0003091460250E040E02115310541F420915B
:100AF0005302309154024091550250915602209376
:100B0000E1043093E2044093E3045093E40446018B
:100B10005701860E971EA11CB11C8092EF04909283
:100B2000F004A092F104B092F204E0914002F0913E
:100B30004102F093F504E093F404B0E00E94E62152
:100B4000DC01CB01880D991DAA1DBB1D8093F60405
:100B50009093F704A093F804B093F90425E0EE0F06
:100B6000FF1F2A95E1F7E150FE4FEF2FFF27E69593
:100B70008E0F9F1FA11DB11D8093EA049093EB047B
:100B8000A093EC04B093ED04809042029090430255
:100B9000B12CA12C8114910441F480904F029090CB
:100BA0005002A0905102B0905202C81AD90AEA0A23
:100BB000FB0AC80CD91CEA1CFB1C04C0F694E79481
:100BC000D794C794CA95D2F7C092E504D092E604B0
:100BD000E092E704F092E80485EFC8168FE0D806AB
:100BE000E104F10428F48CE08093F30481E00CCF5D
:100BF00080E125EFC2162FEFD206E104F104A0F345
:100C000080915B0290915C02A0915D02B0915E02C6
:100C10008093F6049093F704A093F804B093F9043A
:100C200080E2E2CFCF93DF93EC016E857F858889E8
:100C3000998941E00E949F04882351F08A8920E22B
:100C4000829FC0011124815D9D4FDF91CF91089556
:100C500090E080E0FACF4F925F926F927F928F92F6
:100C60009F92AF92BF92CF92DF92EF92FF920F933B
:100C70001F93CF93DF93EC0142305105610571055D
:100C800090F480E0DF91CF911F910F91FF90EF9052
:100C9000DF90CF90BF90AF909F908F907F906F909C
:100CA0005F904F90089589859A85AB85BC850196A4
:100CB000A11DB11D84179507A607B70710F3CB88B0
:100CC000DC88ED88FE888F89803109F042C0BB271F
:100CD000A72F962F852F480159012A013B01C80EE5
:100CE000D91EEA1EFB1E8091000190910101A09186
:100CF0000201B0910301C816D906EA06FB0699F570
:100D00008F898031C1F5B301A20155276627772766
:100D1000440F551F415D5D4FFA01918280828091A1
:100D200018028160809318028A89823080F08D8158
:100D30009E81AF81B8858C0D9D1DAE1DBF1D80931A
:100D4000190290931A02A0931B02B0931C0281E037
:100D500099CFDB01CA01E7E0B695A79597958795EE
:100D6000EA95D1F7B8CF40E0C701B6010E949F04D1
:100D70008111C6CF86CFB301A2014F7755276627D1
:100D80007727440F551F440F551F415D5D4FFA01F2
:100D900080829182A282B382C2CF8F929F92AF92C1
:100DA000BF92CF92DF92EF92FF920F931F93CF9358
:100DB000DF93FC0181859285A385B4850196A11DF1
:100DC000B11D84179507A607B70770F480E0DF917F
:100DD000CF911F910F91FF90EF90DF90CF90BF9038
:100DE000AF909F908F90089583889488A588B68847
:100DF0008789803189F5BB27A72F962F852FE90199
:100E00006A017B018F01BC01CD01680D791D8A1D2E
:100E10009B1D8090000190900101A0900201B09074
:100E2000030186169706A806B90601F5F801878919
:100E3000803111F5DD24EE24FF24F601EE0FFF1FB3
:100E4000E15DFD4F80819181B0E0A0E088839983CE
:100E5000AA83BB8381E0BBCFDB01CA01C7E0B695A3
:100E6000A79597958795CA95D1F7C9CF40E00E947D
:100E70009F048111DBCFAACFE894C7F8DD24EE24CC
:100E8000FF24F601EE0FFF1FEE0FFF1FE15DFD4F88
:100E900080819181A281B381BF70D8CF4F925F9240
:100EA0006F927F92AF92BF92CF92DF92EF92FF92BA
:100EB0000F931F93CF93DF9300D000D0CDB7DEB751
:100EC0008C0149835A836B837C835901C12CD12CBB
:100ED0007601412C82E0582E612C712C49815A8177
:100EE0006B817C819E012F5F3F4FC8010E94CD0620
:100EF000882339F1F8018585A301920104C0220FEE
:100F0000331F441F551F8A95D2F7DA01C901C80E55
:100F1000D91EEA1EFB1E49815A816B817C8187891B
:100F2000803111F188EF9FEFAFEFBFE0481759070D
:100F30006A077B0798F2F501C082D182E282F382D0
:100F400081E00F900F900F900F90DF91CF911F9144
:100F50000F91FF90EF90DF90CF90BF90AF907F9078
:100F60006F905F904F90089588EF9FEFA0E0B0E002
:100F7000DDCFCF93DF93FC012581222321F080E098
:100F8000DF91CF910895EC018091F304803159F500
:100F900082E08583178A108E118E128E8091F40460
:100FA0009091F504B0E0A0E025E0880F991FAA1FFA
:100FB000BB1F2A95D1F7838B948BA58BB68B8CEDB9
:100FC00094E09C8F8B8F81E08C831E821F82188619
:100FD00019861A861B861C861D861E861F86188A01
:100FE000198A1A8ACDCF803251F683E085834091E9
:100FF000F6045091F7046091F8047091F904478B5E
:10100000508F618F728F9F012D5E3F4F8CED94E06A
:101010000E944E078111D3CFB2CF8F929F92AF9291
:10102000BF92CF92DF92EF92FF920F931F93CF93D5
:10103000DF93EC018D8181110EC080E0DF91CF91B3
:101040001F910F91FF90EF90DF90CF90BF90AF90E6
:101050009F908F9008950B891C892D893E890417D4
:1010600015072607370748F34A015B01823031F440
:101070008A869B86AC86BD8681E0E0CF8114910490
:10108000A104B10449F41E821F82188619861A86AB
:101090001B861C861D86F0CF0A851B852C853D8509
:1010A000EB8DFC8D858590E00996B901A801415032
:1010B000510961097109082E04C076956795579505
:1010C00047950A94D2F775016401E1E0CE1AD10880
:1010D000E108F10804C0F694E794D794C7948A9580
:1010E000D2F7C416D506E606F70620F0012B022B30
:1010F000032B11F58F89988DA98DBA8D8E839F83CF
:10110000A887B9878E010A5F1F4FC114D104E1047B
:10111000F10409F4ADCF4E815F816885798598012E
:101120008B8D9C8D0E94CD0691E0C91AD108E108F3
:10113000F1088111EACF81CFC41AD50AE60AF70A6D
:10114000E1CF3F924F925F926F927F928F929F92E8
:10115000AF92BF92CF92DF92EF92FF920F931F93C5
:10116000CF93DF93CDB7DEB72C970FB6F894DEBFE1
:101170000FBECDBF5C01DC015B968D909C905C97AF
:1011800016964D905D906D907C9019974114510486
:101190006104710409F468C0BFEF4B1A5B0A6B0A63
:1011A0007B0A312CF40181859285A385B4859C014D
:1011B000AD012F5F3F4F4F4F5F4F29873A874B87D6
:1011C0005C87730162011D821E821F821886F401F2
:1011D00081859285A385B4852D813E814F81588577
:1011E000281739074A075B0708F056C089859A8592
:1011F000AB85BC858C159D05AE05BF0550F482E01E
:10120000C82ED12CE12CF12C92E0492E512C612CCE
:10121000712C9E012F5F3F4FB701A601C4010E94B0
:10122000CD068823C9F189819A81AB81BC81892B44
:101230008A2B8B2B09F1260137019FEF491A590A96
:10124000690A790A2D813E814F8158852F5F3F4F72
:101250004F4F5F4F2D833E834F8358873FEFC31A15
:10126000D30AE30AF30AB3CFF401408051806280CD
:1012700073803324339496CFC414D504E604F70462
:1012800009F70FEF1FEF2FEF3FE0B701A601C401F1
:101290000E942B06811119C080E02C960FB6F8949D
:1012A000DEBF0FBECDBFDF91CF911F910F91FF9099
:1012B000EF90DF90CF90BF90AF909F908F907F90F6
:1012C0006F905F904F903F900895D50116964D9185
:1012D0005D916D917C9119974115510561057105DD
:1012E00039F097018601C4010E942B068823A1F2E0
:1012F000D5011696CD92DD92ED92FC92199733208E
:1013000051F0D701C6010196A11DB11DF4018083E2
:101310009183A283B383F5018789908DA18DB28DCE
:10132000892B8A2B8B2B39F48481C78AD08EE18E4E
:10133000F28E80688483F50184818062848381E0F9
:10134000ACCF1F93CF93DF93FC012581222371F152
:10135000162FEC01848187FF1EC0CF010E94120668
:10136000FC01892B19F18D81823040F48B899C8995
:10137000AD89BE89848F958FA68FB78F8F89988D01
:10138000938F828F8F89988DA98DBA8DB58BA48B01
:101390008C818F778C83111103C08C818F7E8C831D
:1013A000812FDF91CF911F910C94740480E0DF9125
:1013B000CF911F910895FF920F931F93CF93DF93C7
:1013C000EC018D81813041F090E080E0DF91CF91A0
:1013D0001F910F91FF9008958C8181FFF5CF82FDC1
:1013E0001BC000912F0410913004C8010E94CD024F
:1013F0000E94AC02F82EC8010E949A028FEFF812E8
:10140000E3CF8C8185FF1BC060E0CE010E94A10963
:101410008C818F7D8C83D8CF4B895C896D897E8947
:101420008A859B85AC85BD8584179507A607B70778
:10143000C1F2CE010E940D088111D3CFC5CF4091DA
:10144000190250911A0260911B0270911C02452BE7
:10145000462B472B21F080E00E945004B5CF8061DD
:101460008C832A853B85317080E092E0821B930B50
:10147000ADCFCF93DF93EC0161E00E94A1098823F7
:1014800011F01D8281E0DF91CF9108952F923F925C
:101490004F925F926F927F928F929F92AF92BF9284
:1014A000CF92DF92EF92FF920F931F93CF93DF9330
:1014B00000D000D01F92CDB7DEB77C015B01342E87
:1014C0005D83DC0115968C911597813009F0CEC0B3
:1014D00014962C9021FECAC022FCB4C0C32CDD801F
:1014E00022947FE027222094B22DB1702B2ED701B9
:1014F0001A964D915D916D917C911D97C114D10407
:1015000009F428C15B968D919C915C97FC017480D5
:101510007A948A019B0169E036952795179507957E
:101520006A95D1F770228A011170711020C00115DF
:101530001105E9F416964D915D916D917C91199785
:10154000411551056105710509F099C057968D91B6
:101550009D910D90BC91A02D0097A105B10509F0BA
:10156000B0C0C7010E94A108882309F47FC080E0B1
:1015700092E0801B910B46018C159D0508F44C01EF
:10158000D7015B964D915C915C9716968D919D91DC
:101590000D90BC91A02D0297A109B109FA012585F2
:1015A00004C0880F991FAA1FBB1F2A95D2F7468532
:1015B000578560897189840F951FA61FB71F9C01ED
:1015C000AD01270D311D411D511D29013A01811425
:1015D00032E0930609F07BC08091000190910101F7
:1015E000A0910201B091030184159505A605B705E8
:1015F00059F48FEF9FEFDC0180930001909301017C
:10160000A0930201B0930301022D9501B301A20141
:1016100080912F04909130040E94E203882331F1DD
:101620009EEFB91AC818D908F70182859385A48559
:10163000B585880D991DA11DB11D82879387A4874B
:10164000B58755CFF70143895489658976898285A5
:101650009385A485B585481759076A077B0709F460
:101660003DCFC7010E940D08811138CF81E090E085
:10167000D70113969C938E93129780E007C09E012A
:101680002F5F3F4F0E94CD06811102C090E079C0CC
:1016900089819A81AB81BC81F701238D348DF90159
:1016A000278948EF5FEF60E070E0203121F048EFDC
:1016B0005FEF6FEF7FE084179507A607B70708F085
:1016C00050CFF70186839783A087B18750CF01154C
:1016D000110599F5D7011A964D915D916D917C9107
:1016E0001D9753968D919D910D90BC91A02D4817FB
:1016F00059076A077B0708F181E00E947404882378
:1017000009F4B4CF409200015092010160920201AD
:101710007092030180911802816080931802C801C1
:10172000815D9D4FD5019C01280D391DFC012E17AF
:101730003F0759F04D914193FACF41E0C301B20107
:101740000E949F048111EBCF91CF281B390BA20E71
:10175000B31E68CFF70183899489A589B689841758
:101760009507A607B70738F48481438B548B658BA4
:10177000768B80688483F701848183FD1AC0832D72
:101780009D810F900F900F900F900F90DF91CF9150
:101790001F910F91FF90EF90DF90CF90BF90AF908F
:1017A0009F908F907F906F905F904F903F902F9081
:1017B000089561E0C7010E94A109882309F456CF6A
:1017C000DECFCF93DF931F92CDB7DEB7698341E0C1
:1017D00050E0BE016F5F7F4F0E94460A0F90DF917D
:1017E000CF910895FC01DB0112968D919C91139786
:1017F0009383828384E291E09183808314968C9119
:101800001497848315968C911597858316964D9120
:101810005D916D917C91199746835783608771879D
:101820001A964D915D916D917C911D9742875387DA
:10183000648775871E964D915D916D917C9151974E
:1018400046875787608B718B52968C915297828B0B
:1018500053964D915D916D917C915697438B548B2E
:10186000658B768B57964D915D916D917C915A97D2
:10187000478B508F618F728F5B968D919C91948F67
:10188000838F0895FC01818D928D009719F061E09E
:101890000C94A1090895DC015996ED91FC913097C3
:1018A000B9F083899489A589B68942855385648571
:1018B0007585841B950BA60BB70B811520E8920745
:1018C000A105B10538F08FEF9FE7A0E0B0E00895E3
:1018D00090E080E00895DC0159968D919C910097ED
:1018E00039F0DC01ED91FC910480F581E02D099443
:1018F00090E080E00895CF93DF93EC01E98DFA8DBD
:10190000309749F481E090E09B838A8390E080E007
:10191000DF91CF91089513821282898D9A8D0E9452
:10192000460AE98DFA8D22813381232B59F7F0CFB6
:10193000CF93DF931F92CDB7DEB76983DC01ED91C2
:10194000FC910280F381E02D41E050E0BE016F5F29
:101950007F4F09950F90DF91CF9108952F923F927D
:101960004F925F926F927F928F929F92AF92BF92AF
:10197000CF92DF92EF92FF920F931F93CF93DF935B
:1019800000D01F92CDB7DEB7FC018581811118C050
:101990008FEF9FEF0F900F900F90DF91CF911F91DE
:1019A0000F91FF90EF90DF90CF90BF90AF909F90FE
:1019B0008F907F906F905F904F903F902F90089501
:1019C000848180FFE5CF4389548965897689828542
:1019D0009385A485B585312C212C481759076A07B2
:1019E0007B0719F022242394312C6F012101CE01B1
:1019F00001963C01DF011696BB83AA834114510472
:101A000009F4C5C0F60142855385648575854A0190
:101A1000F1E09F22D6015B968D919C915C978A01A3
:101A20009B01E9E03695279517950795EA95D1F73B
:101A30001596EC91E230E9F5FC01628D738D848D91
:101A4000958D600F711F821F931FA12C22E0B22E73
:101A5000A818B9084A145B0408F45201F60124815D
:101A600026FD04C0A114F2E0BF0671F4009100014C
:101A7000109101012091020130910301061717070F
:101A80002807390709F05EC040E00E949F048823C0
:101A900009F47ECFC401815D9D4FD3019C012A0DC5
:101AA0003B1DFC012E173F0709F46CC041914D937B
:101AB000F9CFDC011496BC90BA94B0228114910441
:101AC00079F4B1100DC0452B462B472B69F5F60173
:101AD0008789908DA18DB28D86839783A087B187EA
:101AE000D6015B96ED91FC915C9716966D917D9178
:101AF0008D919C91199762507109810991092585F1
:101B000004C0660F771F881F991F2A95D2F7068594
:101B1000178520893189600F711F821F931F6B0DFC
:101B2000711D811D911D91CFD60116964D915D912C
:101B30006D917C9119972A813B810E94CD0681117C
:101B4000CFCF26CF730185019401AB01BC018091F9
:101B50002F04909130040E944003882309F418CF89
:101B60006A0C7B1CF60182859385A485B5858A0D58
:101B70009B1DA11DB11D82879387A487B5874A1835
:101B80005B083CCF281B390B620E731EEBCF2A94E7
:101B9000232809F0FDCE898190E0FCCEFC01818DE7
:101BA000928D009711F00C94AE0C8FEF9FEF08957B
:101BB0000F931F93CF93DF93EC01898D9A8D10E0E3
:101BC00000E0009799F00E94AE0C8C010F3F1007C7
:101BD00069F0898D9A8DFC014285538564857585F0
:101BE00041505109610971090E940D08C801DF9136
:101BF000CF911F910F9108959C01FB01309761F0E7
:101C0000948190789A609483C901330FAA0BBB0B1F
:101C100080839183A283B3830895CF93DF93EC01F4
:101C200088819981DC01ED91FC910190F081E02D9A
:101C300009952A813B81820F931F9B838A83DF91C1
:101C4000CF910895CF93DF93EC0188819981DC01D6
:101C5000ED91FC910280F381E02D09952A813B8171
:101C6000820F931F9B838A83DF91CF9108958F9278
:101C70009F92AF92BF92CF92DF92EF92FF920F931B
:101C80001F93CF93DF93CDB7DEB766970FB6F89467
:101C9000DEBF0FBECDBF6C018E01095E1F4F780104
:101CA0008AE0882E912CA12CB12CCB01BA01A50180
:101CB00094010E94F921942F852F605DF8016293B1
:101CC0008F01A901692F782F411551056105710513
:101CD00061F7A7014E1B5F0BBF01C6010E94220ED8
:101CE00066960FB6F894DEBF0FBECDBFDF91CF91E1
:101CF0001F910F91FF90EF90DF90CF90BF90AF902A
:101D00009F908F90089580339CF08A3324F08F3514
:101D100024F08B3724F481E0089581344CF08B3526
:101D2000D4F393ED980F81E09230B0F380E0089502
:101D30008B32B9F7F0CFCF92DF92EF92FF920F93F1
:101D40001F93CF93DF93EC018C85811130C00985FF
:101D50001A850E948802D80118966D937D938D9301
:101D60009C931B97D801ED91FC910284F385E02DA3
:101D7000C801099597FF25C00E948802F801C08418
:101D8000D184E284F3846C197D098E099F09C48093
:101D9000D580E680F7806C157D058E059F0510F3D4
:101DA0008FEF9FEF97FD80E08B8781E08C878B859D
:101DB000DF91CF911F910F91FF90EF90DF90CF9027
:101DC00008959927EFCF1F93CF93DF93EC01162F40
:101DD0000E949B0E811306C01C8681E0DF91CF918B
:101DE0001F91089580E0FACFCF93DF93EC01CE01ED
:101DF0000E949B0E8B303CF489304CF4882349F0D0
:101E000081E0888710C08D3011F08032C9F71C86C0
:101E1000EECF888581110AC081E090E0C15BDF4F81
:101E20009983888380E0DF91CF91089582E090E0EC
:101E3000F5CF0895FC0124813581A9014F5F5F4FE3
:101E4000868197814817590748F482819381558389
:101E50004483FC01E20FF31F608308950190F08139
:101E6000E02D81E0808708959F92AF92BF92CF923C
:101E7000DF92EF92FF920F931F93CF93DF9300D0E7
:101E800000D01F92CDB7DEB78C010E949B0ED82EDA
:101E9000D8011C961C92F12CE12C60EFC62EC801D3
:101EA0000E949B0EF8011486D81609F4BDC081115A
:101EB00019C0F801E15BFF4F82E090E091838083DD
:101EC00080E00F900F900F900F900F90DF91CF91C7
:101ED0001F910F91FF90EF90DF90CF90BF90AF9048
:101EE0009F9008958C3509F09DC0C8010E949B0EFB
:101EF0008823F9F2EEE3F1E0853709F087C0D801D5
:101F00001C961C9254E0952EB12CA12CC8010E9465
:101F10009B0E882371F281344CF48053803148F059
:101F2000F801E15BFF4F83E090E0C8CF8F7D8753DE
:101F3000F5CF44E0AA0CBB1C4A95E1F7A82AF801AA
:101F400014869A949110E2CFC501985D8115944052
:101F500020F4750123E0F222A2CFC5019C5D81151A
:101F60009440A8F4B3E0BB22B701762F6627770F21
:101F7000770F6A297B2990E080E00196603871052F
:101F80008105910540F4C8010E941A0F88CFB50160
:101F900090E080E0F3CF1982262F2F7320682A83E8
:101FA00026E096958795779567952A95D1F76032C3
:101FB000710580F4606C6B835E01E4E0AE0EB11CD1
:101FC000D5016E915D01662309F469CFC8010E94B5
:101FD0001A0FF6CF262F2F7320682B8386E0769575
:101FE00067958A95E1F76031710538F4606E6C830E
:101FF0005E01F5E0AF0EB11CE3CF60686C83CD826B
:102000005E0126E0A20EB11CDBCF329690819923AF
:1020100009F486CF8913F9CF8181882309F480CF11
:10202000F8011486682FAFCF0190F081E02D8085F4
:10203000882331F0F801E15BFF4F84E090E03ECF70
:1020400081E03FCF4F925F926F927F928F929F92EB
:10205000AF92BF92CF92DF92EF92FF920F931F93B6
:10206000CF93DF93EC018B0188818B32C9F18D32E4
:10207000C1F52196FF24F394888190ED980F9A3052
:1020800018F08E3209F04DC160E070E0CB01FE0126
:102090002191A0ED8A2E820E39E0381520F16A399F
:1020A00049E97407840749E1940738F5AAE0B0E0EC
:1020B0009B01AC010E94E621912CB12CA12C2401A2
:1020C0003501409450946094709446165706680603
:1020D000790698F0680D791D8A1D9B1DEF01D7CFF9
:1020E0002196F12CC9CF211108C0FF20F1F16130F8
:1020F0007105810550E89507A0F0E12CEAE08E2EED
:10210000912CA12CB12C61157105F0E88F07910578
:10211000C0F1A50194010E94F921CA01B901E3941B
:10212000F2CFF801248120782A6024839B01AC013E
:1021300088279927DC01821B930BA40BB50B8083A6
:102140009183A283B3838F2DDF91CF911F910F9144
:10215000FF90EF90DF90CF90BF90AF909F908F90C7
:102160007F906F905F904F900895F80124812078C0
:10217000286024836083718382839383FF24F39494
:10218000E2CFFE01299130ED320F3A3010F4E394A2
:10219000F8CF2E32F1F4EF012196FE012196208135
:1021A00050EDD52ED20E29E02D1598F06C3C3CEC6C
:1021B00073073CE08307910580F7AAE0B0E09B013C
:1021C000AC010E94E6216D0D711D811D911DEA94E7
:1021D000E4CF20812F7DD0E0C0E0253409F05DC040
:1021E00021812D32D9F53296CC24C394DF01D0E081
:1021F000C0E02E2D0E2C000C330B4AE0B42EFD0156
:10220000DD9040ED4D0D4A3008F042C0BC9EA0016B
:10221000BD9E500D1124CD2DDD0CDD0BE097C40FBC
:10222000D51FAE01420F531F4732510544F3F80149
:102230008481CC20D1F040E050E060E070E8F11003
:1022400003C040E050E0BA0180788C60F8018483DC
:102250004083518362837383FC2C75CF2B3219F03A
:102260003196C12CC3CF3296FCCF40E050E060E8FD
:102270007FEFF11004C040E050E060E87FE7807835
:102280008C60F8018483408351836283738376CFAB
:10229000CC2019F0D195C195D1092081211141C0DF
:1022A000CE0DD11DE7FCDA950E94A8201C161D0654
:1022B00004F5E12CC0FF0CC024E0E29EF0011124E3
:1022C000E856FF4F25913591459154910E9409217F
:1022D000D595C795E394209769F7F1109058F801C8
:1022E000248120782C60248360837183828393838C
:1022F00045CFD195C195D109E12C209771F3C0FF4D
:102300000CC044E0E49EF0011124E859FF4F2591F0
:102310003591459154910E940921D595C795E39433
:10232000ECCFF12C10CFCF92DF92EF92FF92CF93B0
:10233000DF9300D000D01F92CDB7DEB7FC01892B10
:1023400039F084818F778630B9F028F4843088F5AD
:1023500090E080E013C08A30E9F08C30B9F1883029
:10236000B9F780819181A281B381811520E892071C
:10237000A105B10568F702C0808190E00F900F9031
:102380000F900F900F90DF91CF91FF90EF90DF9023
:10239000CF90089580819181A281B381AC01BD016C
:1023A00050586F4F7F4F411551056140710580F6C0
:1023B000E5CF808191811D82BE016F5F7F4F0E94BA
:1023C0002210CE0101960E949311D8CFC080D180F7
:1023D000E280F38020E030E040E057ECC701B60136
:1023E0000E94CD2287FDB4CF20E03EEF4FEF56E4B0
:1023F000C701B6010E94A32018160CF4A9CFC7018B
:10240000B6010E949722CB01B9CFCF93DF93DC01B5
:10241000EB01EC81FD818A819B810896E817F90721
:1024200040F481E08887F0E0E0E0CF01DF91CF91D8
:1024300008953897FD83EC833097B9F31296CD91C8
:10244000DC911397209791F0CF018C1B9D0B23E01B
:10245000959587952A95E1F78D831396FC93EE93D6
:1024600012971582148217821682DFCF1196FC9381
:10247000EE93F3CFEF92FF920F931F93CF93DF93DF
:102480007C01DC0112962D913C911397ED91FC910A
:10249000AB01420F531FEF01C60FD71FC217D3075F
:1024A000A0F4888181110BC0E901CF014C175D07B1
:1024B00051F00991DC011D91CD010117B9F3819112
:1024C0008111FDCFE8CF309751F4620F731FCB011C
:1024D0000196F70193838283DB011C92F901CF01FE
:1024E000DF91CF911F910F91FF90EF900895FC0124
:1024F0002581222339F0F8E02F0290011124820F68
:10250000931F089590E080E008958F929F92AF927C
:10251000BF92CF92DF92EF92FF920F931F93CF93D0
:10252000DF9300D000D0CDB7DEB7FC0185818130CC
:1025300091F080E00F900F900F900F90DF91CF916E
:102540001F910F91FF90EF90DF90CF90BF90AF90D1
:102550009F908F900895848181FFEBCF8389948928
:10256000A589B689892B8A2B8B2B09F45FC07F0143
:1025700040E050E0BA01CF010E940D088823C9F263
:10258000F701C38CD48C8788908CA18CB28C82E0AC
:1025900090E0A0E0B0E0F60180839183A283B38352
:1025A0009E012F5F3F4FB501A401C6010E94CD06D9
:1025B000882309F4BECF00E010E09801B501A40122
:1025C000C6010E942B06882309F4B3CF89809A8024
:1025D000AB80BC80F6018789803119F188EF9FEFCD
:1025E000AFEFBFE088169906AA06BB06C8F2F7014E
:1025F000178A108E118E128E138A148A158A168AE3
:1026000084818068848361E0C7010E94A1098823D6
:1026100009F48FCF40E050E0BA01C7010E940D08D5
:1026200089CF88EF9FEFA0E0B0E0DCCF81E082CFE0
:10263000CF92DF92EF92FF921F93CF93DF93EC0143
:1026400080E2689FF0011124E15DFD4F9385917157
:1026500061F0842F827449F080E0DF91CF911F9167
:10266000FF90EF90DF90CF900895142F6A8B8091A8
:10267000000190910101A0910201B09103018E87A8
:102680009F87A88BB98BC488D588F12CE12C760163
:10269000DD24CC24CF8AD88EE98EFA8E828D938D5C
:1026A000B0E0A0E0AC01BD014C295D296E297F2975
:1026B0004F8B588F698F7A8F83858871B1F4848DA1
:1026C000958DA68DB78D8B8B9C8BAD8BBE8B81E052
:1026D0008D831F701C831E821F82188619861A869E
:1026E0001B861C861D8681E0B8CF803109F0B4CFEF
:1026F0009E012D5E3F4F8B8D9C8D0E944E0788233F
:1027000009F4AACF84E0E4CFFB0101900020E9F7AF
:102710003197AF01461B570BDC01ED91FC91028014
:10272000F381E02D0994CF93DF93BC0181E394E022
:102730000E948413EC016FE471E081E394E00E9455
:1027400084138C0F9D1FDF91CF910895FB010190A1
:102750000020E9F73197AF01461B570B0C94220E6E
:102760001F93CF93DF93EEE3F1E01281112379F011
:10277000329621816213F9CFEC016CE50E940D0EB7
:10278000612FCE01DF91CF911F910C940D0E61113D
:10279000F9CF62E571E0DF91CF911F910C94A61300
:1027A0002F923F924F925F926F927F928F929F9261
:1027B000AF92BF92CF92DF92EF92FF920F931F934F
:1027C000CF93DF93CDB7DEB76C970FB6F894DEBF2B
:1027D0000FBECDBF8C011B01DC0114968C911497A8
:1027E0008F77863009F492C268F58230A0F1129694
:1027F000ED90FC901397CC901196DC90843008F00B
:1028000056C2A701B601C1010E94220EF1018281C8
:1028100093816C960FB6F894DEBF0FBECDBFDF91EB
:10282000CF911F910F91FF90EF90DF90CF90BF90CD
:10283000AF909F908F907F906F905F904F903F9060
:102840002F9008958C3069F160F4883009F459C2F2
:102850008A3009F43FC269E571E0C1010E94A61304
:10286000E5C1803209F4ECC18034A9F76BE5C10100
:102870000E940D0EF801008111810115110509F466
:10288000DAC1B101C8010E94D013C8010E947712B9
:102890008C01892B09F4CFC16CE2C1010E940D0E9D
:1028A000ECCFF801C080D180E280F380A7019601CF
:1028B000C701B6010E94A3208111CDCF20E030E0F6
:1028C000A901C701B6010E94A320882379F0A701BE
:1028D0009601C701B6010E942B229B01AC01C701E2
:1028E000B6010E94A320882309F4B5CF20E030E090
:1028F000A901C701B6010E94A32087FF08C06DE2AD
:10290000C1010E940D0EF7FAF094F7F8F09420E858
:1029100036E948E15BE4C701B6010E94CD2287FD9C
:1029200081C074E1A72EB12C00E210E0188E1F8A3E
:10293000F501E856FF4F2591359145915491C70116
:10294000B6010E94CD2287FD13C0F501E859FF4F63
:102950002591359145915491C701B6010E940921F5
:102960006B017C012F89388D200F311F388F2F8B01
:102970001595079534E0A31AB1088CEFA8168FEFD0
:10298000B806B1F655245A9420E030E0A901C701F9
:10299000B6010E94CD2218160CF04BC02CEA35EC83
:1029A00047E257E3C701B6010E94A32018160CF4B2
:1029B00040C0A52DB4E0AB02C0011124B12CA12C64
:1029C000FC01E058FF4F3F019C0128563F4F490151
:1029D0003FEF531671F1F301EA0DFB1D259135917F
:1029E00045915491C701B6010E94A32087FF13C0EF
:1029F000F401EA0DFB1D2591359145915491C701D4
:102A0000B6010E9409216B017C018F89988D801B82
:102A1000910B988F8F8B159507955A9494E0A91A6E
:102A2000B108D6CF00E210E055E0552E188E1F8A6F
:102A3000ABCFC701B6010E949E224B015C012B0166
:102A40003C0106E080E492E4AFE0B0E0898F9A8F29
:102A5000AB8FBC8F102F01509AE0491651046104CE
:102A60007104C8F0698D7A8D8B8D9C8D2AE030E0E1
:102A700040E050E00E94F921298F3A8F4B8F5C8F04
:102A8000C301B2012AE030E040E050E00E94F921A9
:102A900029013A01DFCFC501B4010E94A8209B01A2
:102AA000AC01C701B6010E942A226B017C01698D2D
:102AB0007A8D8B8D9C8D0E94A8209B01AC01C70153
:102AC000B6010E9409212B013C010E949E226B014C
:102AD0007C010E94A8209B01AC01C301B2010E94AD
:102AE0002A229B01AC010E942B220E949E22C60E2C
:102AF000D71EE81EF91E898D9A8DAB8DBC8DC81628
:102B0000D906EA06FB06D8F09FEF891A990AA90AA6
:102B1000B90AAF89B88DAB2B39F1BAE08B169104A5
:102B2000A104B10408F1EF89F88D3196F88FEF8B8D
:102B3000C12CD12C7601812C912C540183942AE054
:102B4000422E512C612C712CC701B601A3019201B8
:102B50000E94F921672B682B692B51F4111644F45C
:102B600069017A011150F0CFC12CD12C7601E7CF49
:102B7000B501A401C1010E94370E112371F14E016C
:102B8000F1E18F0E911C012F54019AE0492E512C36
:102B9000612C712C015068F0C701B601A3019201AC
:102BA0000E94F921605DD4016E934D0169017A01A3
:102BB000F1CF812F90E0BC0160957095F501E81B85
:102BC000F90B31978EE2808344275527461B570B1C
:102BD0006A0D7B1DC1010E94220EEF89F88DEF2B3B
:102BE00029F165E6C1010E940D0E0F89188D17FFAE
:102BF00007C06DE2C1010E940D0E119501951109EA
:102C0000FE0177969F018AE0E82EF12CC801B701FA
:102C10000E94D222805D82938B01672BB9F7A901B4
:102C20004E1B5F0BBF01C1010E94220ED101129603
:102C30008D919C91EECD6DE5C1010E940D0EF6CFF8
:102C40006BE7C1010E940D0EF80100811181011591
:102C5000110559F1D8011696CC9016971796DC906D
:102C600062E2C1010E940D0E7601F70161917F01C0
:102C7000662321F0C1010E94B013F7CF62E2C101C7
:102C80000E940D0E6AE3C1010E940D0EB101C80140
:102C90000E94D013C8010E9477128C01892B29F061
:102CA0006CE2C1010E940D0ED2CF6DE7C5CF62E28A
:102CB000C1010E940D0E8601E00EF11EE016F10624
:102CC00039F0F80161918F01C1010E94B013F6CF74
:102CD00062E2B2CFCD90DD90ED90FC90B701A601FD
:102CE000F7FE0BC06DE2C1010E940D0E442755276F
:102CF000BA014C195D096E097F09C1010E94370EA6
:102D000085CD4D915D916D917C91F7CF8C916EE564
:102D100071E0811102C063E671E0C1010E94A61357
:102D200075CDCF93DF9300D000D0CDB7DEB79A83B7
:102D300089831C821B82BE016F5F7F4F82E295E018
:102D40000E94D0130F900F900F900F90DF91CF91B2
:102D500008953F924F925F926F927F928F929F92CF
:102D6000AF92BF92CF92DF92EF92FF920F931F9399
:102D7000CF93DF93CDB7DEB72B970FB6F894DEBFB6
:102D80000FBECDBF7C01FE013196CE010C966F01C6
:102D900030E231938E179F07E1F7DA0130E087E0E8
:102DA0009D91B92E992309F43CC09E32F1F48A30EA
:102DB000C9F480E02B960FB6F894DEBF0FBECDBFEE
:102DC000DF91CF911F910F91FF90EF90DF90CF9007
:102DD000BF90AF909F908F907F906F905F904F903B
:102DE0003F90089538E08AE0DBCFE0EBF0E04491DB
:102DF000442321F031969413FACFDBCF8317C8F226
:102E00004FED490F4E35A8F64FE9490F4A3118F4F6
:102E100040EEB42EB90EF601E30FF11DB0823F5F14
:102E2000BFCF8981803229F2322E8B01DB015B9684
:102E30008D919C915C97F701948F838F16961D92CC
:102E40001D921D921C921997FB01128613861486FF
:102E50001586F80182859385A485B58543895489B3
:102E60006589768984179507A607B70708F04DC0CE
:102E700025E0B695A795979587952A95D1F7F82FD0
:102E8000FF70AF2ED80115968C91823008F491CF47
:102E9000C8010E94AE0C97FD8CCFF8018285938506
:102EA000A485B5854F96A11DB11D82879387A48700
:102EB000B587F0E2AF9EB0011124615D7D4F6115D1
:102EC000710509F476CFDB018C91882341F0853EB2
:102ED00009F058C0BB2029F0BB24B394BACFB1107D
:102EE0000EC0F701A28A8091000190910101A0918A
:102EF0000201B091030186879787A08BB18BDB011C
:102F00008C918111E9CFBB24B394832D82718231DE
:102F100009F04FCFBB2009F443C0C7010E9412063D
:102F2000009709F446CF20E2FC0111922A95E9F7B7
:102F30002BE0F601DC0101900D922A95E1F721E2E8
:102F400038E2DC0151963C932E93509740E058E0D4
:102F50001F965C934E931E9753963C932E935297D5
:102F600059963C932E93589757965C934E93569749
:102F700081E00E947404882309F41BCF432DF701DC
:102F800062890AC04BE050E0C6010E941124892BDF
:102F900009F05FCF432D6A2DC7010E9418130ACF95
:102FA000F8018581823009F404CFC8010E94A1088C
:102FB000882309F4FECED8015B96ED91FC915C97D5
:102FC00016968D909D90AD90BC901997B2E08B1A9B
:102FD0009108A108B108858504C0880C991CAA1C19
:102FE000BB1C8A95D2F786859785A089B189880E02
:102FF000991EAA1EBB1E848124013501480E511C56
:10300000611C711C481459046A047B0409F1E1E055
:103010004E1A51086108710881E00E9474048823E7
:1030200009F4C7CEEFE2F2E011928FE294E08E173E
:103030009F07D1F740920001509201016092020176
:103040007092030180911802816080931802DACF98
:10305000D8015B96ED91FC91258580E092E0A0E09F
:10306000B0E004C0880F991FAA1FBB1F2A95D2F792
:10307000F8014389548965897689840F951FA61FB5
:10308000B71F838B948BA58BB68BD70152961C925E
:103090008FE292E048CFEF92FF920F931F93CF936E
:1030A000DF93EC017B018A011B821A8288EE93E098
:1030B000A0E0B0E08C839D83AE83BF8380E391E08A
:1030C000998388838DE190E00E94EC229A8F898F0A
:1030D000009779F02DE1F701DC0101900D922A951E
:1030E000E1F74CE050E0B801CE010C960E94272495
:1030F000188EDF91CF911F910F91FF90EF9008955F
:10310000CF92DF92FF920F931F93CF93DF93CDB7B0
:10311000DEB7C755D1090FB6F894DEBF0FBECDBFDD
:103120008C01F62E1C821B8284E2C82E81E0D82EF0
:10313000DA82C9821E82CE0101960E94B907BE01C1
:103140006F5F7F4FCE01CB960E94F20B19A218A29F
:10315000DF8ECE8E1BA221968FAD2197811122C0CA
:10316000F8011382128288EE93E0A0E0B0E084833D
:103170009583A683B78380E391E091838083128E49
:10318000118E1486C801C95ADF4F0FB6F894DEBFFE
:103190000FBECDBFDF91CF911F910F91FF90DF90B8
:1031A000CF9008952F2D41E052E0BE01655C7F4F26
:1031B000CE014E960E94A916882391F2CE01CB969D
:1031C0000E94390A8F2D8670863041F449A95AA988
:1031D0006BA97CA9CE014E960E940D08BE01625ECD
:1031E0007F4FCE0101960E94F20B41E052E0BE01FA
:1031F0006F5F7F4FC8010E944B18C4CF0F931F937E
:10320000CF93DF93D0E0C0E06115710591F08B01A1
:10321000FC01C081D181209761F06E817F81C8015E
:103220000E941E24892B29F0CE010E947712EC0106
:10323000F2CFCE01DF91CF911F910F910895CF93DF
:10324000DF93EC0190912605892F8F7761F49078B8
:1032500090629093260510922305109222051092F9
:103260002505109224058091260585FF1AC0209718
:10327000C1F0BE0182E295E00E94FE18009771F451
:1032800069E175E082E295E00E940512009731F055
:10329000FC0124812F772483D783C683DF91CF91CC
:1032A000089590E080E0FACF9F92AF92BF92CF92C4
:1032B000DF92EF92FF920F931F93CF93DF93EC0176
:1032C0008B01E42E0E94F40ED82E81110EC0F12C39
:1032D0008F2DDF91CF911F910F91FF90EF90DF9095
:1032E000CF90BF90AF909F900895CE010E949B0E0B
:1032F000873209F42CC114F5823209F428C1CE01B9
:103300000E949B0EE82E5E01FFE0AF0EB11CF12C77
:103310009A2CCB2C8E2D0E94830E882309F443C156
:103320008FE3F81609F43FC11C86F394F501E1928E
:103330005F01CE010E949B0EE82EECCF8B3509F485
:103340004AC08B37E1F6F8018481807880628483FB
:103350001182108213821282EE2009F447C01C866B
:10336000CE010E94F40E882309F4B1CF6DE7CE019F
:103370000E94E30EF82E81114FC0CC24C394EA942E
:10338000E881F981828193819B838A8384819581FD
:1033900022813381821B930B9F838E831D821C822B
:1033A000892B09F4C086CE010E949B0E873209F456
:1033B00060C0823209F45DC0CE010E949B0ED82EFF
:1033C0000E94830E8111AEC0C15BDF4F83E090E0AD
:1033D000998388837DCFF801848180788064848399
:1033E0001182108213821282E11007C0C15BDF4F8D
:1033F00085E090E0998388836ACF1C86CE010E9485
:10340000F40E882309F463CF6DE5CE010E94E30E2C
:10341000F82EEA94882311F0FD2C5ACF6D857E8515
:10342000C8010E940512009729F4C15BDF4F84E0B8
:1034300090E0CECF4E2DBC01CE010E9454198823BE
:1034400009F445CFCE010E94F40E882309F43FCF42
:103450006DE5CE010E94E30E8111DECF6CE2CE015C
:103460000E94E30E8111DACFC15BDF4F83E090E071
:10347000C1CFCE010E94340F882309F429CFCE0199
:103480000E94F40E882309F423CF6AE3CE010E9440
:10349000E30E882309F498CFEA81FB818C819D811A
:1034A000E80FF91F1082AC80BD806A817B81C80162
:1034B0000E94FE18BC01892BA9F4B501888199816D
:1034C0000E943A125C016D857E85C8010E9405123A
:1034D000FC01892B09F4A9CF848180688483B78299
:1034E000A682BF014E2DCE010E945419882309F4F3
:1034F000EFCECE010E94F40E882309F4E9CE6DE7E9
:10350000CE010E94E30E811120C06CE2CE010E9428
:10351000E30E882309F458CFCE010E94F40E8111E6
:103520002FCFD6CE1C866D2DCE010E941A0FCE0154
:103530000E949B0ED82E0E94830E8111F3CFE8814A
:10354000F9818085811171CF9ACFF82EC1CEE881A3
:10355000F981828193819B838A83848195812281F1
:103560003381821B930B9F838E831D821C82892B48
:1035700011F481E08087CE010E94340FF82E882359
:1035800009F4A5CECC80DD80B601888199810E94A6
:103590003A12F80124812078256024839183808366
:1035A000D382C28295CEFE01EF0DF11D17868F8565
:1035B000843781F4F801848180788660848381E097
:1035C0008083F4E0FF1609F427CFC15BDF4F82E070
:1035D00090E010CF863641F4F801848180788660CF
:1035E00084831082F5E0EECF8E3621F484E0F81269
:1035F000ECCF12CFB801892D9C2D0E942210882378
:1036000009F432CF09CF2091260525FF05C0BC0162
:1036100082E295E00C94FE1890E080E008951F92FD
:103620000F920FB60F9211242F933F934F935F93F6
:103630006F937F938F939F93AF93BF93EF93FF937A
:1036400081E394E00E948801FF91EF91BF91AF91D7
:103650009F918F917F916F915F914F913F912F91AA
:103660000F900FBE0F901F9018951F920F920FB6DC
:103670000F9211242F938F939F93EF93FF93E091D9
:103680004104F09142048081E0914704F0914804A4
:1036900082FD1BC0908180914A048F5F8F732091BF
:1036A0004B04821741F0E0914A04F0E0EF5CFB4FDD
:1036B000958F80934A04FF91EF919F918F912F9165
:1036C0000F900FBE0F901F9018958081F4CF1F921E
:1036D0000F920FB60F9211242F933F938F939F93C6
:1036E000AF93BF9380911E0290911F02A091200280
:1036F000B091210230911D0223E0230F2D3758F5A0
:103700000196A11DB11D20931D0280931E0290936E
:103710001F02A0932002B093210280912202909177
:103720002302A0912402B09125020196A11DB11D92
:103730008093220290932302A0932402B093250247
:10374000BF91AF919F918F913F912F910F900FBE9D
:103750000F901F90189526E8230F0296A11DB11D0A
:10376000D2CFE1E3F4E01382128288EE93E0A0E08E
:10377000B0E084839583A683B78322E131E031836F
:10378000208325EC30E03587248724EC30E0378730
:10379000268720EC30E0318B208B21EC30E0338B1E
:1037A000228B22EC30E0358B248B26EC30E0378BFB
:1037B000268B118E128E138E148EEEECF4E020E523
:1037C00020831182E0EDF4E01582168211861386C3
:1037D00042E050E060E070E0448755876687778775
:1037E00013A215A614A624E231E033A722A717A638
:1037F000E7E2F6E01382128284839583A683B7837F
:1038000080E391E091838083128E118E1486E9E12A
:10381000F5E087E295E0918380839383828387E25A
:1038200096E0958384839783868310861586089512
:10383000CF93DF93CDB7DEB7C85AD1090FB6F8944E
:10384000DEBF0FBECDBF789484B5826084BD84B5E1
:10385000816084BD85B5826085BD85B5816085BD8B
:1038600080916E00816080936E0010928100809143
:1038700081008260809381008091810081608093CB
:103880008100809180008160809380008091B100F0
:1038900084608093B1008091B00081608093B0001B
:1038A00080917A00846080937A0080917A008260AF
:1038B00080937A0080917A00816080937A00809171
:1038C0007A00806880937A001092C100E0914104F0
:1038D000F091420482E08083E0913D04F0913E0447
:1038E0001082E0913F04F09140048FEC80831092AD
:1038F0004904E0914504F091460486E08083E0911C
:103900004304F0914404808180618083E09143040A
:10391000F0914404808188608083E0914304F091B9
:103920004404808180688083E0914304F0914404E2
:1039300080818F7D808369E671E081E394E00E945D
:1039400084138091FF04882321F08AEF94E00E9481
:10395000390A1092DB041092D9041092D604109206
:10396000D5048AE08093D4040E9488028B01809160
:10397000D4040E94B30061E08091D4040E94170235
:10398000FFB6F89480912602811124C0E2EFF0E0A6
:103990008491E6E0F1E09491E82FF0E0EE0FFF1F54
:1039A000E252FF4FA591B491EC91E92321F461E03B
:1039B0008AE00E9417028AE00E94B3008CB5806101
:1039C0008CBD8CB580648CBD8DE00E94B3008BE013
:1039D0000E94B300809126028F5F80932602FFBE73
:1039E00082E58093CE041092CF048091CE04909112
:1039F000CF040E94CA024AE0F42E8FEF0E94A50273
:103A0000FA94F110FACF80ED94E00E94CD0220E00C
:103A100030E0A90160E080ED94E00E94E302F82E1E
:103A20008093DA0421E0821799F00E948802601BDB
:103A3000710B613D774058F381E08093D50480EDB0
:103A400094E00E949A0286E991E00E949313FFCFCE
:103A50002AEA31E040E050E068E080ED94E00E9426
:103A6000E30282FF2AC0F092DB048091DB04C12CC8
:103A7000D12CE12C20E4F22E823019F0C12CD12C73
:103A8000760120E030E0A90167E380ED94E00E9438
:103A9000E302A701960169E280ED94E00E94E3024F
:103AA0008093DA048823D1F00E948802601B710B96
:103AB000613D774030F388E0C0CF34E0F32E0E94C0
:103AC000AC028093DA04FA94F110F9CF8A3A11F03B
:103AD00082E0B3CF82E08093DB04C7CF8091DB0428
:103AE0008230D1F420E030E0A9016AE380ED94E077
:103AF0000E94E302882311F086E09FCF0E94AC026F
:103B0000807C803C19F483E08093DB040E94AC024B
:103B10000E94AC020E94AC0280ED94E00E949A02E6
:103B200080E58093CE041092CF0481E00E94E904E6
:103B3000882309F4DFC18AEF94E00E94B907882343
:103B400009F481CF81E891E00E94931380E480938F
:103B50007C0080917A00806480937A0080917A0062
:103B600086FDFCCF6091780070917900072E000CE3
:103B7000880B990B611571058105910511F00E9463
:103B80009A209AE0892E912CA12CB12C0E944B20D6
:103B9000A50194010E94C72165507109810991090D
:103BA00070932E0260932D020E944B2024E130E09E
:103BB00040E050E00E94C7216A50710981099109D3
:103BC00070932C0260932B020E944B20A50194015C
:103BD0000E94C721605B7F4F8F4F9F4F70932A02D7
:103BE000609329020E944B2024E030E040E050E046
:103BF0000E94C721625071098109910970932802BE
:103C00006093270261E0CE0101960E948018CE01E8
:103C100001960E94D200E0914006F0914106309753
:103C200009F46FC18581882309F46BC189E195E0AE
:103C30002091190530911A0530931C0520931B051E
:103C400020911F053091200530931E0520931D05FE
:103C50001092210510922605CF55DF4F9983888356
:103C6000C15AD04028E0FE01EF55FF4FDE01A756B4
:103C7000BF4F01900D922A95E1F728E0FE01E7562B
:103C8000FF4FDE01119601900D922A95E1F71986FA
:103C900027E236E03B872A871D869F878E876296BC
:103CA0001FAE1EAE62974AE062E275E0CE01019659
:103CB0000E9454196FE471E087E296E00E94841339
:103CC0008091400690914106009761F00E94390A68
:103CD00080914006909141060E94882310924106EF
:103CE000109240068DEA91E00E94031B0E949311FE
:103CF00000912D0210912E027C01E01AF10A8DEA4A
:103D000091E00E941F19BC01C7010E94FC0D85EBC8
:103D100091E00E94031B0E949311C0902B02D0904F
:103D20002C027C01EC0CFD1C85EB91E00E941F191C
:103D3000BC01C7010E94FC0D8EEB91E00E94031BA9
:103D40000E9493117801E80EF91E8EEB91E00E941B
:103D50001F19BC01C7010E94FC0D8DEA91E00E9471
:103D6000031B0E9493117C01EC18FD0887EC91E085
:103D70000E941F19BC01C7010E94FC0D80ED91E05B
:103D80000E94031B0E949311801B910B8C0180EDFC
:103D900091E00E941F19BC01C8010E94FC0D88ED32
:103DA00091E00E94031B0E94931100912702109141
:103DB00028027C01E01AF10A88ED91E00E941F19A7
:103DC000BC01C7010E94FC0D81EE91E00E94031B23
:103DD0000E949311080F191F81EE91E00E941F1994
:103DE000BC01C8010E94FC0D8AEE91E00E941F19DF
:103DF000BC018091290290912A020E94FC0DE39659
:103E00001FAE1EAEE39784E291E0E1969FAF8EAFC6
:103E1000E197E5961FAEE59766961FAE1EAE6697D4
:103E200064969FAF8EAF649768961FAE6897712CAB
:103E3000C12CFE01E159FF4F7F010AEF14E0872DED
:103E40009C2DFC01EF5FFD4F20812F3209F401967C
:103E5000DC01AF5FBD4FFE01E457FF4F30E020E0D3
:103E6000AF016D916F3249F0662339F001962F5FF3
:103E70003F4F61932C303105A1F7240F351FF90115
:103E80001082FC01EF5FFD4F20812F3209F4019673
:103E9000782EC92E8F5F9D4FFC018081811136C025
:103EA0001C821B8284E291E09A8389831E8222E035
:103EB000B801CE0101960E94A916882399F0CE017F
:103EC00001960E948512882369F0CE0101960E9416
:103ED0001206009739F025EEFC0120831E8281E056
:103EE0000E947404F4E00A3F1F0721F1C8010E94F8
:103EF000390A20C080E00E94E904882309F4A3CD98
:103F00001ACE83EF91E00E94931337C0F7018581A9
:103F10008111E8CF21E0B801C7010E94A916D82E6F
:103F200024E00A3F120709F45EC0C8010E94390A62
:103F3000D1105FC067E1CE0101960E948018CE01CA
:103F400001960E94D20081E394E00E94911687E2DC
:103F500096E00E949116809140069091410600974C
:103F600061F00E94390A80914006909141060E94BA
:103F7000882310924106109240068CE092E00E9445
:103F800093130E9463022B013C0188EEC82E83E04C
:103F9000D82EE12CF12C0E94630264197509860960
:103FA0009709683E734081059105A8F381E0C81A1E
:103FB000D108E108F10898EE490E93E0591E611C02
:103FC000711CC114D104E104F10429F780E090E0F0
:103FD000892B09F4DBCD0E947401882309F4D6CD26
:103FE0000E940000CECD882309F4A4CF8E010E5A82
:103FF0001F4F902F812F8701E92EF82E20CF8F920F
:104000009F92AF92BF92CF92DF92EF92FF92CF93A7
:10401000DF93EC01688179818A819B81611571054B
:104020008105910521F464E279ED8BE597E02DE1BE
:1040300033EF41E050E00E94C72149015A019B0142
:10404000AC01A7EAB1E40E94E6216B017C01ACEE71
:10405000B4EFA50194010E94F421C60ED71EE81EFC
:10406000F91EF7FE06C081E0C81AD108E10880E811
:10407000F80AC882D982EA82FB82C701B6019F771B
:10408000DF91CF91FF90EF90DF90CF90BF90AF90F6
:104090009F908F9008958F929F92AF92BF92CF92F0
:1040A000DF92EF92FF92609104017091050180917F
:1040B000060190910701611571058105910521F4B3
:1040C00064E279ED8BE597E02DE133EF41E050E0DC
:1040D0000E94C72149015A019B01AC01A7EAB1E442
:1040E0000E94E6216B017C01ACEEB4EFA5019401C6
:1040F0000E94F421C60ED71EE81EF91EF7FE06C068
:1041000081E0C81AD108E10880E8F80AC0920401E9
:10411000D0920501E0920601F0920701C701B601B5
:104120009F77FF90EF90DF90CF90BF90AF909F90E0
:104130008F900895609304017093050180930601A8
:104140009093070108950E94E52008F481E0089506
:10415000E89409C097FB3EF4909580957095619521
:104160007F4F8F4F9F4F9923A9F0F92F96E9BB27D7
:104170009395F695879577956795B795F111F8CF53
:10418000FAF4BB0F11F460FF1BC06F5F7F4F8F4FBE
:104190009F4F16C0882311F096E911C0772321F0B4
:1041A0009EE8872F762F05C0662371F096E8862F4C
:1041B00070E060E02AF09A95660F771F881FDAF7A3
:1041C000880F9695879597F90895990F0008550FD0
:1041D000AA0BE0E8FEEF16161706E807F907C0F08D
:1041E00012161306E407F50798F0621B730B840B95
:1041F000950B39F40A2661F0232B242B252B21F46F
:1042000008950A2609F4A140A6958FEF811D811D0E
:1042100008950E941C210C948D210E947F2138F06A
:104220000E94862120F0952311F00C9476210C94A5
:104230007C2111240C94C1210E949E2170F3959F32
:10424000C1F3950F50E0551F629FF001729FBB278D
:10425000F00DB11D639FAA27F00DB11DAA1F649F29
:104260006627B00DA11D661F829F2227B00DA11DDC
:10427000621F739FB00DA11D621F839FA00D611D62
:10428000221F749F3327A00D611D231F849F600D83
:10429000211D822F762F6A2F11249F5750409AF0AC
:1042A000F1F088234AF0EE0FFF1FBB1F661F771F38
:1042B000881F91505040A9F79E3F510580F00C9403
:1042C00076210C94C1215F3FE4F3983ED4F38695A8
:1042D00077956795B795F795E7959F5FC1F7FE2BA3
:1042E000880F911D9695879597F9089597F99F677F
:1042F00080E870E060E008959FEF80EC089500246E
:104300000A941616170618060906089500240A943A
:1043100012161306140605060895092E0394000CC0
:1043200011F4882352F0BB0F40F4BF2B11F460FF4F
:1043300004C06F5F7F4F8F4F9F4F089557FD905878
:10434000440F551F59F05F3F71F04795880F97FB59
:10435000991F61F09F3F79F0879508951216130613
:104360001406551FF2CF4695F1DF08C01616170642
:104370001806991FF1CF8695710561050894089577
:10438000E894BB2766277727CB0197F90895052E78
:1043900097FB1EF400940E94DE2157FD07D00E9477
:1043A000F92107FC03D04EF40C94DE215095409582
:1043B000309521953F4F4F4F5F4F089590958095D1
:1043C000709561957F4F8F4F9F4F08950E941B22DC
:1043D000A59F900DB49F900DA49F800D911D112459
:1043E0000895B7FF0C94E6210E94E621821B930BEF
:1043F0000895A1E21A2EAA1BBB1BFD010DC0AA1F26
:10440000BB1FEE1FFF1FA217B307E407F50720F03D
:10441000A21BB30BE40BF50B661F771F881F991FB8
:104420001A9469F760957095809590959B01AC0101
:10443000BD01CF010895A29FB001B39FC001A39F0A
:10444000700D811D1124911DB29F700D811D1124CD
:10445000911D08955058BB27AA270E9442220C9410
:104460008D210E947F2138F00E94862120F039F4AE
:104470009F3F19F426F40C947C210EF4E095E7FBA1
:104480000C947621E92F0E949E2158F3BA176207F7
:1044900073078407950720F079F4A6F50C94C021E2
:1044A0000EF4E0950B2EBA2FA02D0B01B90190014F
:1044B0000C01CA01A0011124FF27591B99F0593F93
:1044C00050F4503E68F11A16F040A22F232F342FDB
:1044D0004427585FF3CF469537952795A795F04029
:1044E0005395C9F77EF41F16BA0B620B730B840B3E
:1044F000BAF09150A1F0FF0FBB1F661F771F881FF6
:10450000C2F70EC0BA0F621F731F841F48F487954D
:1045100077956795B795F7959E3F08F0B0CF93953F
:10452000880F08F09927EE0F9795879508950E94B8
:104530009E226894B1110C94C12108950E94A62175
:1045400088F09F5798F0B92F9927B751B0F0E1F054
:10455000660F771F881F991F1AF0BA95C9F714C004
:10456000B13091F00E94C021B1E008950C94C021B7
:10457000672F782F8827B85F39F0B93FCCF386953D
:1045800077956795B395D9F73EF49095809570959A
:1045900061957F4F8F4F9F4F08950E94E52008F44B
:1045A0008FEF0895AA1BBB1B51E107C0AA1FBB1FB9
:1045B000A617B70710F0A61BB70B881F991F5A95AF
:1045C000A9F780959095BC01CD010895EE0FFF1FCE
:1045D0000590F491E02D09940F931F93CF93DF93EF
:1045E0008230910510F482E090E0E0914406F09171
:1045F000450630E020E0B0E0A0E0309799F42115C6
:10460000310509F44AC0281B390B24303105D8F58F
:104610008A819B816115710589F1FB0193838283F6
:10462000FE0111C040815181028113814817590751
:10463000E0F04817590799F4109761F012960C931F
:10464000129713961C933296CF01DF91CF911F9151
:104650000F9108950093440610934506F4CF211559
:10466000310551F04217530738F0A901DB019A01D7
:10467000BD01DF01F801C1CFEF01F9CF90934506ED
:1046800080934406CDCFFE01E20FF31F81939193F7
:104690002250310939832883D7CF209142063091A7
:1046A0004306232B41F420910A0130910B013093F2
:1046B00043062093420620910801309109012115FB
:1046C000310541F42DB73EB740910C0150910D01D9
:1046D000241B350BE0914206F0914306E217F307E5
:1046E000A0F42E1B3F0B2817390778F0AC014E5F62
:1046F0005F4F2417350748F04E0F5F1F5093430656
:1047000040934206819391939FCFF0E0E0E09CCFED
:10471000CF93DF930097E9F0FC0132971382128266
:10472000A0914406B0914506ED0130E020E01097DD
:10473000A1F420813181820F931F20914206309194
:1047400043062817390709F061C0F0934306E09348
:104750004206DF91CF910895EA01CE17DF07E8F511
:104760004A815B819E0141155105B1F7E901FB8347
:10477000EA8349915991C40FD51FEC17FD0761F4E5
:10478000808191810296840F951FE9019983888326
:10479000828193819B838A83F0E0E0E012968D9181
:1047A0009C9113970097B9F52D913C911197CD01EC
:1047B0000296820F931F20914206309143062817DC
:1047C000390739F6309751F5109245061092440694
:1047D000B0934306A0934206BCCFD383C2834081EB
:1047E0005181840F951FC817D90761F44E5F5F4F41
:1047F00088819981480F591F518340838A819B8109
:10480000938382832115310509F0B0CFF0934506DB
:10481000E09344069ECFFD01DC01C0CF13821282DB
:10482000D7CFFB01DC0104C08D910190801921F4E8
:1048300041505040C8F7881B990B0895FB01DC01DB
:104840008D91019080190110D9F3990B0895FB0106
:10485000DC014150504048F001900D920020C9F712
:1048600001C01D9241505040E0F70895F894FFCFE9
:10487000FFFFFFFF0100000000004606800000006F
:104880000000AA010A013701F701680146015A0137
:1048900000000000E10B0A01DB0909010000000033
:1048A000980C7B0C6B0C420C4B0CCE0DD80D2F2FA3
:1048B00022225C5C6208660C6E0A720D7409000D9F
:1048C0000A005C7530303030006E756C6C007472AC
:1048D00075650066616C736500496E697469616C29
:1048E000697A696E6720534420636172642E2E2EAC
:1048F00000696E697469616C697A6174696F6E20B0
:10490000646F6E652E00696E697469616C697A61A5
:1049100074696F6E206661696C656421006C616208
:10492000656C5F32006C6162656C5F3134006C6194
:1049300062656C5F3137006C6162656C5F313800B5
:104940006C6162656C5F36006C6162656C5F323011
:10495000006C6162656C5F3130006C6162656C5F38
:104960003239006572726F72206F70656E696E67A2
:1049700020646174617E312E6A736F00436F6D70C5
:064980006C657465640023
:00000001FF
